:020000040800F2
:10500000803900204D5200088D7F00084576000849
:10501000897F0008EB730008618A00080000000027
:105020000000000000000000000000007B8100087C
:105030000575000800000000498000087F81000815
:10504000675200086752000867520008675200085C
:105050006752000867520008697500086752000827
:10506000675200086752000867520008675200083C
:1050700067520008F1730008675200086752000881
:10508000675200086752000867520008675200081C
:10509000675200086752000867520008675200080C
:1050A00067520008675200086752000867520008FC
:1050B00067520008675200086752000867520008EC
:1050C00067520008675200086752000867520008DC
:1050D0006752000867520008675200089589000867
:1050E000675200086752000867520008000000007D
:1050F00000000000000000000000000000000000B0
:105100006752000800F002F800F090F80AA090E85A
:10511000000C82448344AAF10107DA4501D100F072
:1051200085F8AFF2090EBAE80F0013F0010F18BFAF
:10513000FB1A43F001031847BC4C0000DC4C000094
:10514000103A24BF78C878C1FAD8520724BF30C8B3
:1051500030C144BF04680C60704700000023002485
:1051600000250026103A28BF78C1FBD8520728BF77
:1051700030C148BF0B6070476E2900F0BF847029B2
:1051800000F01786662904F0C984652904F0C684F6
:10519000672904F0C384612904F0C28403681B0AF0
:1051A00028BF41F08001692900F0C280642900F025
:1051B000BF80752900F0BC806F2900F0A485782994
:1051C00000F0E385E92900F03F85E42900F03C8503
:1051D000F52900F03985EF2900F0A185F82900F0C4
:1051E000E2850368DB0928BF41F08001632900F0F4
:1051F000C084732900F0C584E32901F00F82F329EC
:1052000001F01482002070471FB501F01BFC040060
:105210000020002104F06CFC401C60600020002194
:1052200004F050FCE0601FBD10B510BD01F0DCFBC8
:105230001146FFF7E9FF04F039F801F0B9FC03B4B7
:10524000FFF7F2FF03BC01F001FD000009488047B1
:1052500009480047FEE7FEE7FEE7FEE7FEE7FEE758
:10526000FEE7FEE7FEE7FEE704480549054A064B70
:10527000704700008181000805510008803300203C
:105280008039002080350020803500201CB50C4678
:10529000064B7B4469460090204600F048FC0446DB
:1052A0000020694600F056FC20461CBDBF080000E7
:1052B0000FB41CB5084B06AA7B44694600900598BC
:1052C00000F035FC04460020694600F043FC20460F
:1052D0001CBC5DF814FB00009908000070B50C467A
:1052E0000546012A05D02878800600D5EA69002302
:1052F00002E0012305E05B1C934202D2E05C00283F
:10530000F9D1A869E618C01AA861286A1844286269
:10531000284600F061FB04E0D5E9012114F8010BF7
:105320009047B442F8D3284600F06CFB70BD0000F3
:105330002DE9F0410646002410687529314616A56E
:1053400010D000F070FB002802DA404213A507E0FD
:1053500031688A0701D512A502E0490704D511A5D5
:10536000012401E000F068FB00210A2206F1240775
:1053700009E0B0FBF2FCB0FBF2F302FB1C003030A2
:1053800078541846491C0028F3D123462A46304653
:10539000BDE8F04100F059BB000000002D00000006
:1053A0002B000000200000002DE9F05F8946044634
:1053B0004FF0000ADFF874B1FB44C0F820A020468B
:1053C000E1688847002874D0252806D0D4E9012157
:1053D0009047206A401C2062F1E700265F46204685
:1053E000E16888472028054607DB312D05D278196A
:1053F00010F8200C08B10643F1E7B00701D526F0FC
:105400000406C4F81CA00027C4F818A02A2D09D04F
:10541000284603F051FC38B304EB8708303DC8F848
:10542000185019E059F8041B204604EB87029161DB
:10543000E1688847012F054618D1E069002820DA85
:1054400026F020061DE0D8F8180000EB800005EBE0
:1054500040003038C8F818002046E1688847054603
:1054600003F02AFC0028EED1012F0AD02E2D08D1FE
:105470002046E16888477F1C0546022F46F020063B
:10548000C4DBA069002803DA404246F00106A061AF
:10549000F00701D026F010066C2D0BD0682D09D036
:1054A0004C2D39D06A2D35D0742D35D07A2D33D08E
:1054B00016E038E0E1682F4620468847B8420546A6
:1054C00009D16C2F26D04FF48060E1680643204656
:1054D0008847054604E06C2F1AD04FF480700643CD
:1054E0000DB3A5F14100192802D8203546F4006615
:1054F0004A462946204626604E46FFF73DFE80B1CB
:1055000001280BD0F61D26F0070000F1080956E728
:105510004020E4E78020D8E70020D6E706F1040920
:105520004DE7284652E7206ABDE8F09F6847000033
:105530000FB400B58DB010A9099000910B904FF0F9
:10554000FF300A9000200C900648784406900648E8
:1055500078446A4607900F9909A800F049FC0DB0FD
:105560005DF814FBC3080000DB0800002DE9FF5FB5
:105570001D464FF0FF3B91464FF000085F46D5E9CE
:105580000146A96901987F1C8847296A8246884795
:105590000028F6D1BAF1FF3F0CD0002E24F4C064ED
:1055A00019DD600614D5BAF12B0F09D0BAF12D0F11
:1055B0000ED103E0584604B0BDE8F09F44F4806487
:1055C000A96901987F1C8847761E8246002E02DD5D
:1055D000BAF1300F03D0B9F1000F26D032E0A9693B
:1055E000761E01987F1C44F400748847002E824682
:1055F00005DDBAF1780F06D0BAF1580F03D0B9F132
:10560000000F10D01EE0B9F1000F02D0B9F1100F59
:1056100018D1A969761E01987F1C24F4007488476C
:105620008246102002E0082000E00A20814609E0BE
:10563000A96908FB0908761E01987F1C44F40074D0
:1056400088478246002E05DD4946504600F0BCFBE7
:105650000028EDDAE96901988847A00502D46FF0C7
:105660000100A8E7E00725D1600613D5600502D543
:10567000C8F1000000E0404629680A1D2A60096858
:10568000220501D5087015E0220701D5088011E038
:1056900008600FE02868011D29600068210502D517
:1056A00080F8008006E0210702D5A0F8008001E024
:1056B000C0F8008038467EE72DE9FF5F4FF0000814
:1056C0009946144646469169D2E901A7DDF838B0FB
:1056D00001988847054659EA0B0005D009E0A16901
:1056E0000198761C88470546216A28468847002885
:1056F000F5D1681C03D05FEACA7005D015E04FF001
:10570000FF3004B0BDE8F09F2068011D2160D0F893
:1057100000800AE05FEACA7001D108F8015BA16964
:10572000761C01987F1E88470546002F1ADD681CED
:1057300018D0B9F1000F0DD0E81705EBD060421179
:1057400020F01F0059F822102A1A0120904001422F
:10575000E0D107E0BBF1000FDCD12846216A884781
:105760000028D7D0E16901988847BBF1000F07D125
:10577000002E05DD5FEACA7002D1002188F8001012
:10578000A068B84203DDBBF1000F03D017B16FF082
:105790000100B6E73046B4E730B505460B462A4669
:1057A00013F8014B12F8010B08B1A042F8D01CB15C
:1057B000002802D06D1CF1E7284630BD40EA010305
:1057C00010B59B070FD1042A0DD310C808C9121FAA
:1057D0009C42F8D020BA19BA884201D9012010BDE4
:1057E0004FF0FF3010BD1AB1D30703D0521C07E0B1
:1057F000002010BD10F8013B11F8014B1B1B07D115
:1058000010F8013B11F8014B1B1B01D1921EF1D185
:10581000184610BD10B5431C02E010F8011B71B111
:105820008107FAD14FF0013202C88C1A8C4314EA76
:10583000C211F9D0C01A0A0603D0C01E10BDC01A8A
:1058400010BD0A0401D0801E10BD0902FCD0401E0C
:1058500010BD032A40F2308010F0030C00F01580D8
:1058600011F8013BBCF1020F624498BF11F801CB63
:1058700000F8013B38BF11F8013BA2F1040298BFC8
:1058800000F801CB38BF00F8013B11F0030300F032
:105890002580083AC0F0088051F8043B083A51F8D6
:1058A00004CBA0E80810F5E7121D5CBF51F8043BDB
:1058B00040F8043BAFF30080D20724BF11F8013B4E
:1058C00011F801CB48BF11F8012B24BF00F8013BB0
:1058D00000F801CB48BF00F8012B704710B5203A03
:1058E000C0F00B80B1E81850203AA0E81850B1E899
:1058F0001850A0E81850BFF4F5AF5FEA027C24BF4F
:10590000B1E81850A0E8185044BF18C918C0BDE845
:1059100010405FEA827C24BF51F8043B40F8043B0E
:1059200008BF7047D20728BF31F8023B48BF11F8C3
:10593000012B28BF20F8023B48BF00F8012B70471D
:105940004FF000020429C0F0128010F0030C00F0A8
:105950001B80CCF1040CBCF1020F18BF00F8012B26
:10596000A8BF20F8022BA1EB0C0100F00DB85FEAF4
:10597000C17C24BF00F8012B00F8012B48BF00F8C0
:10598000012B70474FF0000200B51346944696462F
:10599000203922BFA0E80C50A0E80C50B1F1200142
:1059A000BFF4F7AF090728BFA0E80C5048BF0CC0F0
:1059B0005DF804EB890028BF40F8042B08BF70474E
:1059C00048BF20F8022B11F0804F18BF00F8012BC0
:1059D000704770477047704770B504468569006826
:1059E000C10601D5302600E02026C00707D070BDD3
:1059F000D4E9012130469047206A401C20626D1E88
:105A0000F6D570BD70B5044685690078C00707D12A
:105A100070BDD4E9012120209047206A401C2062FB
:105A20006D1EF6D570BD09684A0501D540B27047B4
:105A3000C905FCD500B2704709684A0501D5C0B256
:105A40007047C905FCD580B270472DE9F0470D4677
:105A500099469246044600F124080168880604D558
:105A6000E06921F01001216000E00120A84201DD81
:105A7000471B00E00027A1697A1902EB0900081A08
:105A8000A0612078C00602D42046FFF7A5FF0026BB
:105A900008E0D4E901211AF806009047206A401C6A
:105AA000761C20624E45F4DB2078C0060AD52046DD
:105AB000FFF792FF06E0D4E9012130209047206AE9
:105AC000401C2062381EA7F10107F4DC07E0D4E98E
:105AD000012118F805009047206A401C2062281E0A
:105AE000A5F10105F3DC2046FFF78CFF20780006C6
:105AF00002D50220BDE8F0870120FBE711680268AB
:105B0000006A530501D508700AE0D30501D5088065
:105B100006E0130603D5C217C1E9000200E00860E1
:105B20000120704701694A1C02610878704700B57E
:105B30008FB0CDE901310021059105497944CDE9C6
:105B4000031011466846FFF72FFC0FB000BD0000A0
:105B5000E5FFFFFF0A6802F8010B0A60704710B505
:105B6000436913B1AFF3008001E0FFF7B7FB0120F9
:105B700010BD127800F124010A7000224A7001223F
:105B8000EDE711684FF0FF32E9E700002DE9FF5F14
:105B900015468A460446DFF8AC80F8440027D8E969
:105BA00000103E46CDE9001010E03AF816106A46A3
:105BB00002A800F0F9FE411C07D02178890603D520
:105BC000E269391891420DD80744761C2078800686
:105BD00002D5E069B84205DDAE42E6DB3AF81600D0
:105BE0000028E2D1A069C01BA0612046FFF7F4FEA7
:105BF000D8E90010CDE90010002017E03AF818109D
:105C00006A4602A800F0D0FEB0F1FF3F81460BD0FB
:105C100000250DF1080B05E0D4E901211BF8050072
:105C200090476D1C4D45F7D308F10100B042804606
:105C3000E4DB206A384420622046FFF7E3FEBDE83B
:105C4000FF9F00009A3F00002DE9F0418046D21DE1
:105C500022F007020025D2E90002F52915A614D08A
:105C6000011E72F1000106DA0023D0EB030063EBA2
:105C7000020211A608E0D8F800108B0701D50FA684
:105C800002E0490701D50EA601251146002408F1BE
:105C9000240704E000F0DCF830323A55641C50EA86
:105CA0000102F7D12B46324621464046BDE8F0417D
:105CB000FFF7CBBE000000002D0000002B0000000D
:105CC0002000000030B4002100F1240408E002F0BC
:105CD0000705D208303542EA4372DB086554491C97
:105CE00052EA0305F3D10468002310A2250707D563
:105CF000A40600D421B1C46901230DA2641EC461AD
:105D000030BCFFF7A2BE10B5044621461068FFF76D
:105D100093FE02462046BDE810400023D2E7D21D84
:105D200022F00701D1E90023CCE7000000000000C9
:105D300030000000F0B40D460188090502D5214C61
:105D40007C4402E01F4C7C440E34002100F1240608
:105D500008E002F00F071209E75D42EA03721B092F
:105D60007754491C52EA0307F3D102780023120743
:105D700004D5702D06D009B1022311342246F0BC9F
:105D8000FFF763BE01231034F8E770B504460D46F3
:105D900021461068FFF750FE024629462046BDE81E
:105DA00070400023C6E7D21D22F00703D3E9002389
:105DB000C0E70368126843F0200303600823C3614F
:105DC0000023B7E7FC3D00003A2800D2303820F02D
:105DD0002002412A01D3A2F13700884201D34FF0BB
:105DE000FF3070470268114413780160184670470D
:105DF000D160054979445161044979441162002117
:105E00001161114600F016BCEDFFFFFFDD00000040
:105E1000426842B1016811F8013B23B1521EC0E94A
:105E20000012184670470121C160881E7047426801
:105E30005AB1C368016843B983688B4205D0491ED3
:105E4000521CC0E90012002070474FF0FF3070472D
:105E500030B5B0F10A024FEA900E71F100034EEA3C
:105E6000817EB0EB0E0061EB91014FEA101E4EEA0D
:105E7000017E10EB0E0041EB11114FEA102E4EEA9D
:105E8000016E10EB0E0041EB11214FEA104E4EEA6D
:105E9000014E10EB0E0041EB1141401841F10001A1
:105EA0004FEAD00040EA41704FEAD10110EB800583
:105EB0004FEA810444EA907444EB01046D1944EB09
:105EC0000404521BA3414FF0000348BF0A3200D51F
:105ED00030BD401C41F1000130BD10B5044600F05A
:105EE000A9FD0068005D00F0010010BD70472DE9BC
:105EF000FF4F0C461E464FF0FF378BB0D2E9000132
:105F0000DDF860800A908A46C1F30A5505B93D461E
:105F1000002108464FF00000BAF1000F00F44000E5
:105F200005DA00EB80004FF4400101EA50004FEA2F
:105F30009059B9F1010F00DDB9460A9850EA4A00BC
:105F40000ED044F61050A5F2FF3545432F14B8F19A
:105F5000000F1ED07542291E1EDDC9F100021CE093
:105F6000B8F1010F4FF0000001D0302103E0F243FF
:105F700005E02154401CB042FBDB304600220021EA
:105F800021540B99C1F80880C1E900200FB0BDE889
:105F9000F08FBD1B6D1CDEE74A4600DA694206A899
:105FA00000F094FD06AB93E8070003AB83E807001D
:105FB00050460A9900F051FE8DE80700A0F5005008
:105FC0001F3800900398002D0ADD42F21F014A4657
:105FD0000844002303A90390684601F0BAF809E0D9
:105FE000A0F500504A461F38002303A903906846D5
:105FF00001F0C4F88DE807000004000C03D04FF056
:10600000FF30410800E01046B8F1000F03D0002235
:10601000009215461EE0751E05D4FFF719FF3032B9
:1060200062556D1EF9D5B3460122084302D0002205
:106030007F1C04E02078302801D100227F1E002A36
:10604000099784D01DE0112D07DAFFF701FF3032E8
:1060500062556D1C50EA0102F5D1084302D0009848
:10606000C8B10EE00021681E05E0235C625C635449
:106070002254401E491C8142F7DBAB46A81B401E40
:106080000990002004F80B000B98099AC0F80880CA
:10609000C0E9002B7AE711264FF0000857E72DE9F9
:1060A000F04F88460446D21D22F0070191B0D1E995
:1060B0000001CDE90A0102F0EBFD02460B98C00F8A
:1060C00001D02D2007E02068810701D52B2002E0B8
:1060D000202101EAC000032A099001D0072A05DB2C
:1060E00003464146204600F0B1FC0BE120788006D3
:1060F00001D5E06900E00620B8F1650F814606D0C1
:10610000B8F1660F18D0B8F1670F70D131E00020F8
:10611000B9F1110F009001DB112301E009F1010336
:106120000AAA01A90CA8FFF7E2FEDDE90C7000261F
:1061300009F10105834647E001204B4600904FF0EE
:1061400000470AAA01A90CA8FFF7D1FEDDE90DB0AE
:106150000C995D46002610B909F101000D18B9EB44
:10616000050003D4C0F1FF3609F10105A5EB0900D4
:106170002BE0B9F1010F01DA4FF001090020B9F16C
:10618000110F0090484601DD112300E003460AAAE2
:1061900001A90CA8FFF7ABFEDDE90C704D46002607
:1061A0008346207800070AD4AB4500DA5D4601A893
:1061B000012D04DD411911F8011C302907D04F458C
:1061C00002DA17F1040F04DA012082460FE06D1E97
:1061D000EEE7002F02DCED1B3E4403E0781CA842F2
:1061E00000DD7D1CB81B00F1010A4FF0004720784C
:1061F000000703D4AA4501DB4FF0FF3A0021B7F1B5
:10620000004F0DF143088DF8431024D002202B23BA
:10621000002F01DA7F422D230A21021EA0F1010086
:1062200000DC5FB197FBF1FC97FBF1F201FB1C7CFA
:1062300017460CF1300C08F801CDEEE7A8F101008B
:1062400003702188090501D5452100E06521A0F1F1
:10625000010800F8011C09980FA9A1EB0807FF1D10
:1062600000B10120411901EBEA70A1693844081A14
:10627000401EA0612078C00602D42046FFF7ACFB88
:10628000099828B1D4E901219047206A401C206276
:106290002078C00622D52046FFF79EFB1EE0002E88
:1062A00004DBB34502DD01A8805D00E03020D4E9C5
:1062B00001219047206A401C2062761CAAF101004F
:1062C0005FEA000A0AD100F0BDFBC0680168405CCB
:1062D000D4E901219047206A401C2062281EA5F1C4
:1062E0000105DCDC07E0D4E9012118F8010B904737
:1062F000206A401C2062381EA7F10107F3DC20460B
:10630000FFF780FB032011B041E600002DE9F04FBC
:1063100004460D46D21D22F0070089B0D0E900974F
:106320004846394602F0B4FC0246F80F01D02D234E
:1063300007E02068810701D52B2302E0202101EA34
:10634000C0038DF820300BB1012000E00020032AAB
:10635000824601D0072A04DB2946204600F076FB5E
:106360003FE12078800601D40D2500E0E569C7F300
:106370000A560D2D49DA00214FEA175B08464FF007
:106380000000002F00F4400007DA00EB80004FF41B
:10639000400100EBD07001EA60008115012901DDA8
:1063A0004FF0FF3100224FEA850CBCF1180F06D3E5
:1063B0001346ACF118004FF08052C24003E04FF496
:1063C000801323FA0CF30CF10C0CBCF1200F04D356
:1063D000ACF1200C09FA0CF001E007FA0CF00029EE
:1063E0004FF0004801DD18B90FE00ED140450CD345
:1063F00019EB02095F4121B9404502D19F4329EAC7
:106400000209BBEB175F00D0761C2088000502D57F
:106410007B48784402E07A487844193808AA302347
:1064200002F80A30037C0AF10101002E0AF1020A87
:1064300053546A4602DC4FF0300101E04FF0310165
:106440004FF001088DF8001002D0A6F2FF3603E0ED
:1064500059EA470100D06B4E002D02DC2178090774
:1064600004D54FF002082E218DF80110C4460021FA
:106470000BE0C7F303433F01C35C491C6D1E02F8E8
:106480000830052908F1010801DA002DF1DC0021AE
:106490000CE000EB1973491C1B786D1E082902F8EB
:1064A00008304FEA091908F1010801DA002DF0DC83
:1064B00021688B0602D516E0A8F10108E04505DD4C
:1064C00002EB080313F8013C302BF5D0B8F1000FB4
:1064D00009DD02EB080313F8013C2E2B03D1090759
:1064E00001D4A8F10108002D05DD3E2102F80810B5
:1064F0006D1E08F10108407C002E02F8080008F12A
:10650000010804DA2D20764202F8080002E02B2070
:1065100002F808000A214FF47A70864208F1010857
:106520000BDB96FBF0F3303302F8083096FBF0F308
:1065300008F1010800FB136601E0642E0CDB642007
:1065400096FBF0F3303302F8083096FBF0F308F1D5
:10655000010800FB136601E00A2E06DB96FBF1F052
:10656000303002F8080008F1010896FBF1F001FB59
:106570001060303002F80800A16908F1010808EB4A
:10658000050202EB0A00081AA0612078C00602D4B6
:106590002046FFF721FA216A08AE01EB0A002062CB
:1065A00004E0D4E9012116F8010B9047BAF1010A81
:1065B000F7D22078C00602D52046FFF70DFA6E46C6
:1065C00009E016F8010B3E280FD0D4E901219047CD
:1065D000206A401C2062B8F10108F2D22046FFF781
:1065E00011FA09B00320BDE8F08F206A2844206228
:1065F00003E0D4E90121302090476D1EEBD3F8E78A
:106600006537000002FCFFFF10B5436913B1AFF31B
:10661000008001E0FFF7BAFA012010BD128800F1F6
:10662000240182840022C2840122EDE711684FF028
:10663000FF32E9E72DE9F34F4FF0000A0C465646CA
:106640008DB001200C9001F10C000B9062690B9849
:1066500001219047051E2DD0252D2CD0216A884779
:10666000C0B162690B9801219047216A88470028D0
:10667000F7D16269411E0B98904700E0761CA16932
:106680000D988847216A88470028F7D1E1690D985D
:106690008847DBE7A1690D988847A842074601D1E2
:1066A000761CD3E7E1690D9888477F1C02D1BAF1C7
:1066B000000F6FD06CE162690B9800273D463946A8
:1066C00090472A2804D162690B980121904701253F
:1066D000DFF8D08262690B9801219047A0F1300168
:1066E0000A290AD24745E5DC07EB870100EB4107A1
:1066F000303FDFD445F01005ECE7E90601D46FF038
:1067000000476C280AD04C2814D0682815D06A2875
:106710000DD074281CD07A281AD01DE062690B981D
:10672000012190476C2802D045F0040514E045F0A3
:1067300002050DE045F020050AE062690B98012191
:106740009047682802D045F0080505E045F400654B
:1067500062690B9801219047C4E9015765283DD033
:1067600019DC58287AD00CDC452837D004DC2528E1
:1067700026D041289ED131E046282FD0472899D1F4
:106780002CE05B2877D0612828D063287CD064284F
:1067900023D15AE0F7E06F2848D008DC66281DD0E6
:1067A00067281BD0692821D06E2816D127E07028D1
:1067B00045D0732868D0752847D078280DD14DE092
:1067C000A1690D988847252805463FF469AFE1691E
:1067D0000D9888476D1C3FF46AAFD9E00D992346A8
:1067E0006A466FF00100AFF30080C6E045F040005C
:1067F00023464FF000026060A80736D43EE0E80769
:106800007FF447AF2068011D21600068290501D58C
:1068100006701BE7290701D5068017E7A90703D5EE
:10682000F117C0E9006111E706600FE745F040008D
:1068300023464FF008026060A80716D41EE040F619
:106840000E0125EA0100606016E045F04000234695
:106850004FF00A026060A80707D40FE045F040003F
:106860006060A80708D5234610220D996FF001003B
:10687000AFF3008081E007E0102223460D996FF00E
:106880000100FEF773FE78E04FF0000963284F46E1
:10689000C8464B46CB4602D05B2807D039E020796A
:1068A000C00601D40120A060012732E06269D4F85B
:1068B0000CB00B98012190475E2807D14FF00109D9
:1068C00049466269D4F80CB00B989047216939B9F0
:1068D00000210A4603AB43F82120491C0829FADBB2
:1068E000D8B3216949B308F1010862690B98012105
:1068F00090475D28F4D1B9F1000F09D0002003A919
:1069000051F82020D24341F82020401C0828F7DB12
:1069100003AB2069002820794FEA40701ED05B4607
:106920002246CDF80080CDE901970D9900286FF03F
:10693000010020DAAFF300801FE0C11703AA00EBCB
:10694000D1614B1121F01F0102EB8302411A136840
:106950000120884003431360C7E719E00D992246E0
:1069600000286FF00100009702DAAFF3008004E026
:10697000FEF7A2FE01E0AFF3008000280ADA401C17
:1069800006D10C9820B14FF0FF300FB0BDE8F08F6A
:106990005046FAE7E90701D10AF1010A064400204E
:1069A0000C9053E6CCCCCC0C70B516460C46054684
:1069B00000F040F8036893F80101012806D0FF2C8D
:1069C0000FD8185D68B101202C7070BDD3F8070195
:1069D0003246214603F2071303442846BDE87040BF
:1069E00018474FF0FF3070BD754600F0EBF8AE462B
:1069F00005006946534620F00700854618B020B5CB
:106A0000FEF732FCBDE820404FF000064FF00007D3
:106A10004FF000084FF0000B21F00701AC46ACE846
:106A2000C009ACE8C009ACE8C009ACE8C0098D46B3
:106A30007047000010B500F005F8001D10BD00BF44
:106A4000B130000000487047403300202DE9F0418C
:106A50001F46044603260168072A01F4006004DB90
:106A600008B116A505E016A503E008B115A500E0DC
:106A700015A521F010002060A069C01EA0610FB113
:106A8000401EA0612046FEF7A7FF4FB1D4E90121C7
:106A900038469047206A401C2062C01C206206E0F5
:106AA000206AFAE7D4E9012115F8010B9047761E18
:106AB000F8D22046FEF7A6FFBDE8F0814E414E0019
:106AC0006E616E00494E4600696E66002DE9F04722
:106AD000814616468AB0354878440DC88DE80D00C9
:106AE00032487844801C03AC0DC884E80D0041F6A0
:106AF0009B300844372190FBF1F290FBF1F5A5F1B2
:106B0000800501FB12041B3C02D56442012000E019
:106B10000020DFF898A080460027FA44AAF1BE0AB8
:106B20000EE0E0070AD03246684607EB4701012332
:106B30000AEB810100F022FB8DE8070064107F1C46
:106B4000002CEED1194F7F44AE3F19E0E80715D075
:106B500007EB04100DF1180A90E80E008AE80E0009
:106B6000C068F04201D1981908903246012306A965
:106B700003A800F003FB03AB83E807006D10641C5F
:106B8000002DE3D14FF0010332466946B8F1000F02
:106B900003A802D000F0DDFA01E000F0EFFAC9E945
:106BA0000001C9F808200AB0BDE8F08730310000C4
:106BB00010B50446AFF300802046BDE81040FEF754
:106BC0003EBB000000487047203300204FF0013CDE
:106BD00050F8042B51F8043B9A4221D1A2EB0C034C
:106BE000934313EACC1317D150F8042B51F8043B0C
:106BF0009A4215D1A2EB0C03934313EACC130BD1A9
:106C000050F8042B51F8043B9A4209D1A2EB0C0333
:106C1000934313EACC13DBD04FF00000704700BF62
:106C2000D01A01BAB1FA81F101F0180122FA01F08B
:106C3000CB40C1F12001DBB2C0B2C01A2CFA01F383
:106C4000D11A914311EAC311E6D1704701491820C6
:106C5000ABBEFEE72600020070475FEA400C08BFAB
:106C600091F0000F4FEA8C234FEAC12243EA5151C1
:106C70004FEA1C5018BF00F5F0404FEA300018BF33
:106C800041F000415FEA6C5C00F02980BCF1FF3FFD
:106C900008BF40F080407047130C06BF12044FF04D
:106CA000100C4FF0000C130E04BF12020CF1080C74
:106CB000130F04BF12010CF1040C930F04BF9200D8
:106CC0000CF1020CD30F04BF52000CF1010C114661
:106CD0004FF00002A0F11F00A0EB0C00704711F074
:106CE000004F08BF704731F000413FF4D5AF0B0CA7
:106CF00006BF09044FF0100C4FF0000C0B0E04BF40
:106D000009020CF1080C0B0F04BF09010CF1040C73
:106D10008B0F04BF89000CF1020CCB0F04BF49009C
:106D20000CF1010CCCF12003A0EB0C0022FA03F3D0
:106D300002FA0CF241EA030100F10100704720F071
:106D40007F4C80EA030023F07F47ACEB070303F599
:106D50007C5300F0004003F1FF032DE980494FEA26
:106D6000154B09B44FEA144325EA0B4E24EA0348B5
:106D70000FF2042606EB132749083E785FEA320239
:106D800003FB0667C7F5000707FB06F64FEA543713
:106D90004FEAD64606F1020607FB066CCCF1005C12
:106DA0004FEA1C472CEA074C07FB06F40CFB06F5E0
:106DB00004EB15464FEA961634BF00204FF0004012
:106DC0004FEAD13706FB07FC4FEA1C4C0CFB0BF7D4
:106DD000D21B03FB0CF761EB07010CFB0EF7B0EBCA
:106DE000074072EB17420CFB08F734BFA2EB0742D7
:106DF000B2EB074261EB17414FEA0C444FEA9107AF
:106E000006FB07FC4FEA1C4C0CFB0BF7B0EBC74032
:106E100072EB573203FB0CF734BFA2EBC742B2EB65
:106E2000C74261EB57310CFB0EF7B0EBC70072EBBA
:106E300057720CFB08F734BFA2EBC702B2EBC702D4
:106E400061EB5771039F4FEA816141EA921104EBB4
:106E5000CC044FEAD1374FEA826206FB07FC42EAD4
:106E600090124FEA80604FEA1C4C0CFB0BF7D21BD0
:106E700003FB0CF761EB07010CFB0EF7B0EB0740CF
:106E800072EB17420CFB08F734BFA2EB0742B2EBE0
:106E9000074261EB17414FEA8C554FEA910704EB2B
:106EA0009C2406FB07FC4FEA1C4C0CFB0BF7B0EBD9
:106EB000C74072EB573203FB0CF734BFA2EBC7425B
:106EC000B2EBC74261EB57310CFB0EF7B0EBC700DA
:106ED00072EB57720CFB08F734BFA2EBC702B2EBA0
:106EE000C70261EB577115EB4C254FEA816141EA0E
:106EF00092114FEA82624FEAD13742EA901206FBC2
:106F000007FC44F100044FEA80604FEA1C4C0CFB84
:106F10000BF7D21B03FB0CF761EB07010CFB0EF721
:106F2000B0EB074072EB17420CFB08F734BFA2EB43
:106F30000742B2EB074261EB174115EB1C154FEA14
:106F4000813141EA92414FEA823242EA90424FEA6D
:106F500080304FEA0C7644F1000448EA03434EEADD
:106F60000B484FF0000EB2EB080C71EB030724BF87
:106F7000624639464EEB0E0E4FF0000B00185241A0
:106F800049414BEB0B0BB2EB080C71EB03077BF1A8
:106F9000000B24BF624639464EEB0E0E4FF0000B3D
:106FA0000018524149414BEB0B0BB2EB080C71EB53
:106FB00003077BF1000B24BF624639464EEB0E0EF1
:106FC00051EA020718BF46F0010616EB0E7655F19E
:106FD000000254F1000103D5BDE88901BDE8008835
:106FE000BDE88901BDE80048B619524141EB0101F5
:106FF000A3F10103704780807F7E7D7C7B7A797866
:10700000777676757473727171706F6E6E6D6C6C6D
:107010006B6A6A696868676666656464636362610F
:107020006160605F5F5E5E5D5D5C5C5B5B5A5A5990
:1070300059585857575656555555545453535252FC
:107040005251515050504F4F4F4E4E4D4D4D4C4C54
:107050004C4B4B4B4A4A4A4949494848484747479D
:1070600047464646454545444444444343434342DA
:10707000424242414141002B9C4630D477002BD004
:107080001CB54FEA370703B44FF010004FF0100162
:10709000BAF1000F06D0BCF1000FDCBF40F00800D1
:1070A00040F008014FF000000FBCBDE810400BF1AC
:1070B000010BBBF1010F08BF5FEA170722BF12F1F6
:1070C000010211F101014FF0004143F1000300F012
:1070D000004043EA00007047F9D35708D0E746EA7A
:1070E000064613F1400F4FEA16461FDD13F1200F3D
:1070F000DFBF16430A46002120335B42BED0C3F1F6
:10710000200746EA064602FA07F74FEA164646EA1D
:107110000706C3F1200722FA03F201FA07F721FA62
:1071200003F14FF0000342EA0702A7E746EA02062E
:1071300046EA06464FEA164646EA0106BCBF46EA5C
:107140000646360C4FF000034FF000024FF00001EE
:1071500094E72DE9804C9A46934670B491E8380044
:1071600007C831EA400C48BF34EA430C03D5FFF7A7
:10717000E6FDFFF780FFF0BCBDE8008C2DE9804CF8
:107180009A46934670B491E8380007C810F0804FD3
:1071900008BF13F0804F03D100F005F8FFF76BFF35
:1071A000F0BCBDE8008C20F07F4780EA030023F0AC
:1071B0007F4C07EB0C03A3F57C5300F00040A3F1D8
:1071C000FE0392F0000F00F0B38095F0000F00F086
:1071D00077802DE901494FEA11404FEA144621EA30
:1071E000004800FB06FC24EA064708FB06F607FBFE
:1071F00008F800FB07F718EB06484CEB164C4FEA73
:10720000124B18EB07484FEA15464CEB174022EAA1
:107210000B4E0BFB06FC25EA06470EFB06F607FBAA
:107220000EFE0BFB07F71EEB064E4CEB164C4FF019
:1072300000061EEB074E4CEB174B18EB0B0840F10A
:10724000000018EB0E0B58EB000840F100008F1AFD
:107250004FF000013CBFC943661B14BFB5EB040CE3
:1072600000213CBFC943F61B4FEA17444EEA8E0E7D
:1072700027EA04454FEA1C4704FB07622CEA074C47
:1072800005FB07F70CFB05F604FB0CFC16EB0746A9
:1072900042EB174216EB0C4642EB1C421BEB060678
:1072A00058EB0202414146EA9E0601D5BDE801893C
:1072B000B619524141EB0101A3F10103BDE8018977
:1072C0004FEA14454FEA114724EA054621EA074CE4
:1072D00005FB07F406FB07F70CFB06F105FB0CFCAE
:1072E00011EB074144EB17444FEA124711EB0C41F5
:1072F00044EB1C4422EA074C05FB07F206FB07F7A8
:107300000CFB06F605FB0CFC16EB074642EB17429E
:1073100016EB0C4642EB1C456A1854F1000148BFBD
:107320007047B619524141EB0101A3F101037047C7
:1073300095F0000F37D04FEA11424FEA144721EA87
:10734000024624EA074C02FB07F106FB07F70CFB99
:1073500006F402FB0CFC14EB074441EB17414FEA27
:10736000154714EB0C4441EB1C4125EA074C02FB8A
:1073700007F506FB07F70CFB06F602FB0CFC16EB09
:10738000074645EB174516EB0C4645EB1C42121918
:1073900051F1000148BF7047B619524141EB01015C
:1073A000A3F1010370474FEA14454FEA114724EA5D
:1073B000054621EA074C05FB07F106FB07F70CFB26
:1073C00006F24FF0000605FB0CFC12EB074241EB06
:1073D000174112EB0C4251EB1C4148BF7047921809
:1073E00041EB0101A3F10103704700BFFEE700007C
:1073F00010B5022201210A4801F0A0FD78B1022255
:107400000121074801F092FD0121054801F05BFCD4
:1074100000200449A1F8620003A000F01DFF10BD88
:1074200000000240242E0020B7A2CBCDBBBAB3E5AA
:10743000C7F8C0EFB5C4CAFDBEDDB7A2CBCDCDEA5B
:10744000B3C90D0A0000000000B587B00221294829
:1074500001F084FC00208DF81A00274802900120DA
:107460008DF819000020039040F201200490234879
:10747000009000208DF8180001904FF40050059006
:107480006A4602211B4801F0A1FC0221194801F0C3
:107490004CFC0221174801F02FFC0121154801F096
:1074A0005DFC01208DF81A001548029001208DF82E
:1074B00019000020039004901048009000208DF8DF
:1074C000180001904FF4005005906A4601210948C8
:1074D00001F07CFC0121074801F027FC0222012178
:1074E000044801F00AFD002211460C2001F0D4FFEF
:1074F00007B000BD00000240240600200448004000
:10750000241A002000BFFEE700B5034603E04FF455
:107510007A7000F006F8181EA3F101018BB2F6D1C3
:1075200000BD6C2141434FF0E02251610021916187
:107530001146096941F00101116100BF4FF0E021DE
:10754000096901F480310029F8D04FF0E021096980
:1075500021F001014FF0E0221161704710B50420C5
:1075600002F088F910BD000010B5012001F0E4FD23
:1075700080B1012001F0DAFD0121074801F08EFE03
:1075800028B106A000F068FE00F0E0F902E00BA0D0
:1075900000F062FE10BD0000000C01400D0A5042D8
:1075A00030CAC7B8DFB5E7C6BD2CB7FECEF1C6F707
:1075B000C1ACBDD3B3C9B9A6210D0A000D0A504212
:1075C00030CAC7B5CDB5E7C6BD2CB7FECEF1C6F7FC
:1075D000D2D1BEADB6CFBFAA210D0A0010B540F280
:1075E000036002F057F80123032228210C4801F020
:1075F000FFFD042303221021094801F0F9FD09A031
:1076000000F02AFE0421064801F0A4FD4FF4FA70B0
:10761000FFF77AFF0421024801F09AFD10BD000037
:10762000000C01403467C4A3BFE9D5FDD4DAB8B477
:10763000CEBBD6D0A3ACC7EBB5C8B4FD2E2E2E0D55
:107640000A00000000BFFEE710B540F2036002F040
:1076500021F8402303221421084801F0C9FD8023AA
:1076600003221421054801F0C3FD4021034801F025
:1076700071FD8021014801F06DFD10BD000C01403D
:1076800070B505460026072418E04021244801F083
:107690005FFD0220FFF745FF4021214801F05AFD20
:1076A00080211F4801F0FAFD18B10120A0403043AD
:1076B000C6B20220FFF735FF601E44B2002CE4DAA8
:1076C0004021174801F044FD0220FFF72AFFB5B121
:1076D0008021134801F03CFD4021114801F03AFDA2
:1076E0000220FFF71EFF40210D4801F031FD8021EF
:1076F0000B4801F02FFD0220FFF713FF0EE0802161
:10770000074801F027FD4021054801F023FD022034
:10771000FFF707FF4021024801F01AFD304670BD17
:10772000000C014070B5054607241CE040211348B9
:1077300001F00EFD0120A040284020B180210F481B
:1077400001F008FD03E080210C4801F001FD02205A
:10775000FFF7E7FE4021094801F0FCFC0220FFF79B
:10776000E0FE601E44B2002CE0DA4021034801F044
:10777000EFFC8021014801F0EDFC70BD000C0140E0
:1077800010B540210A4801F0E5FC8021084801F0CD
:10779000E1FC0220FFF7C5FE8021054801F0D8FC7E
:1077A0000220FFF7BEFE4021014801F0D1FC10BDD0
:1077B000000C014010B54021074801F0CBFC8021AE
:1077C000054801F0C5FC0220FFF7ABFE802102480E
:1077D00001F0C0FC10BD0000000C014010B50446D3
:1077E00000BF601E04B20220FFF79BFE80211048FC
:1077F00001F054FD08B1002CF3DA002C01DA01206D
:1078000010BD40210A4801F0A5FC0220FFF789FEC7
:107810008021074801F042FD08B10220F0E7402135
:10782000034801F095FC0220FFF77BFE0020E7E70C
:10783000000C01402DE9F04107460C461546FFF7C4
:107840009FFFA020FFF76EFF6420FFF7C7FF10B176
:107850000120BDE8F0813846FFF764FF6420FFF7A0
:10786000BDFF08B10220F4E7FFF78AFFA120FFF770
:1078700059FF6420FFF7B2FF08B10320E9E70026B3
:1078800005E00120FFF7FCFEA855701CC6B2601E83
:10789000B042F6DC0020FFF7F3FE611E6854FFF7EC
:1078A00089FF0020D5E7000010B550210448FEF7FD
:1078B00069F8034A50210020FFF7BCFF10BD00000B
:1078C000040000202DE9F041094D00240CE02007C0
:1078D000060E05EB04173946304600F00BF805207C
:1078E000FFF712FE601CC4B2052CF0D3BDE8F08196
:1078F0000400002070B506460D46FFF741FFA020AA
:10790000FFF710FF6420FFF769FF08B1012070BD89
:107910003046FFF707FF6420FFF760FF08B1022041
:10792000F5E700240BE0285DFFF7FCFE6420FFF77D
:1079300055FF10B1E01CC0B2E9E7601CC4B2102CC6
:10794000F1DBFFF737FF0020E1E7000010B5012071
:107950006A49A1F80002A1F802020A20A1F8040273
:10796000A220A1F806020846B0F80402B1F80612F7
:1079700008446249A1F808021020087000BF5F495E
:10798000B1F80802C11700EB5161C91141B95B4858
:1079900090F808025949B1F80212584A505410E0C0
:1079A0005649B1F80802C11700EB5161C911A0EBAB
:1079B000C111C9B241F08001504AB2F802224F4BC6
:1079C00099544E48B0F80202401C4C49A1F80202FA
:1079D000B1F80802C11700EB5161C911474AA2F87A
:1079E00008121046B0F808020028C8D1002110463D
:1079F000B0F80202115404211046B0F80202401CF3
:107A000011544D211046B0F80202801C115451212E
:107A10001046B0F80202C01C115454211046B0F8B0
:107A20000202001D11541046B0F80202401D11540C
:107A300004211046B0F80202801D1154C2211046E4
:107A4000B0F80202C01D115400211046B0F8020225
:107A50000830115464211046B0F802020930115464
:107A600000211046B0F802020A3011544C21104691
:107A7000B0F802020B3011541146B1F802120C3169
:107A800088184C221E49FDF7E4FE00211B48B0F87F
:107A900002025830194A115410211046B0F802025F
:107AA000593011541146B1F802125A318818102277
:107AB00014A1FDF7CEFE00211048B0F802026A3092
:107AC0000E4A115440211046B0F802026B30115496
:107AD0001146B1F802126C31881840220E49FDF7A8
:107AE000B8FE0648B0F80802044AB2F80222104470
:107AF00081B2024800F0E6FE10BD0000E42E002036
:107B0000609D000844303031266868367A506258EB
:107B10004E4C627200000000B09D000870B5054632
:107B20000E46012406E0285D00F0800000B903E065
:107B3000601CC4B2052CF6DB00BF4FF40071064890
:107B4000FDF7FEFE701E001B821EE01C411902485C
:107B5000FDF77FFE70BD0000EE3000202DE9F04102
:107B600004460D4601204A49A1F802022046FDF7CD
:107B700051FE801C4649A1F804022846FDF74AFE42
:107B80004349A1F806020846B0F80402B1F806120B
:107B900008443F49A1F808023020087000BF3C4962
:107BA000B1F80802C11700EB5161C91141B9384859
:107BB00090F808023649B1F80212354A505410E0E4
:107BC0003349B1F80802C11700EB5161C911A0EBAC
:107BD000C111C9B241F080012D4AB2F802222C4BEA
:107BE00099542B48B0F80202401C2949A1F802021E
:107BF000B1F80802C11700EB5161C911244AA2F87B
:107C000008121046B0F808020028C8D12046FDF737
:107C100001FEC0F307211E48B0F802021C4A1154AD
:107C20002046FDF7F7FDC1B21948B0F80202401C2A
:107C3000174A11542046FDF7EDFD06461449B1F8E8
:107C40000212891C124A881832462146FDF701FEAD
:107C50002846FDF7DFFD07462046FDF7DBFD0C4912
:107C6000B1F80212891C0844094946183A462946C7
:107C70003046FDF7EEFD0648B0F80802044AB2F8B7
:107C80000222104481B2024800F01CFEBDE8F081DF
:107C9000E42E00202DE9F04105460E460120604902
:107CA000A1F802022846FDF7B5FD001D5C49A1F8C8
:107CB00004023046FDF7AEFD5949A1F80602084618
:107CC000B0F80402B1F8061208445549A1F80802B8
:107CD0003220087000BF5249B1F80802C11700EB0A
:107CE0005161C91141B94E4890F808024C49B1F8A8
:107CF00002124B4A505410E04949B1F80802C1172A
:107D000000EB5161C911A0EBC111C9B241F0800172
:107D1000434AB2F80222424B99544148B0F8020259
:107D2000401C3F49A1F80202B1F80802C11700EB5C
:107D30005161C9113A4AA2F808121046B0F8080277
:107D40000028C8D12846FDF765FDC0F30721344857
:107D5000B0F80202324A11542846FDF75BFDC1B269
:107D60002F48B0F80202401C2D4A11542846FDF756
:107D700051FD04462A49B1F80212891C284A881884
:107D800022462946FDF765FD2846FDF743FD2449B7
:107D9000B1F80212891C084421490A46B2F800428F
:107DA000E21704EB1262C2F307220A542846FDF7D9
:107DB00031FD1B49B1F80212C91C084418490A4692
:107DC000B2F80042E21704EB12621212A4EB022294
:107DD0000A540846B0F80002401CA1F800023046E0
:107DE000FDF718FD07462846FDF714FD0C49B1F8CC
:107DF0000212091D08440A4944183A4631462046F1
:107E0000FDF727FD0648B0F80802054AB2F802223D
:107E1000104481B2024800F055FDBDE8F081000039
:107E2000E42E002070B5044601205649A1F8020254
:107E30000220A1F804022046FDF7ECFCC01C5149C9
:107E4000A1F806020846B0F80402B1F80612084488
:107E50004C49A1F808028220087000BF4949B1F8D6
:107E60000802C11700EB5161C91141B9454890F8AA
:107E700008024449B1F80212424A505410E0414904
:107E8000B1F80802C11700EB5161C911A0EBC11193
:107E9000C9B241F080013B4AB2F80222394B9954F1
:107EA0003848B0F80202401C3649A1F80202B1F885
:107EB0000802C11700EB5161C911324AA2F8081239
:107EC0001046B0F808020028C8D11146B1F80002E7
:107ED000C11700EB1161C1F307222A49B1F8021260
:107EE000284B5A541946B1F80002C11700EB116132
:107EF0000912A0EB0121CAB21946B1F80212491CBD
:107F00005A541846B0F80002401C1946A1F8000265
:107F10002046FDF77FFCC0F307211A48B0F80202A3
:107F2000801C184A11542046FDF774FCC1B2154854
:107F3000B0F80202C01C134A11542046FDF76AFC37
:107F400005461049B1F80212091D0E4A88182A4642
:107F50002146FDF77EFC2046FDF75CFC0949B1F89F
:107F60000212091D0844074900220A540846B0F8C5
:107F700008020A46B2F80222104481B2014800F019
:107F8000A1FC70BDE42E002000BFFEE700BFFEE7AD
:107F9000BFF34F8F0648006800F4E06005490843CE
:107FA000001D03490860BFF34F8F00BFFEE70000CC
:107FB0000CED00E00000FA0530B5C1B004460D46F6
:107FC0004FF4807101A8FDF7DDFC0D4800952346B4
:107FD0000C49D0F8102401A8FDF76AF90848D0F838
:107FE0003024D0F8341408A000F036F901A90BA011
:107FF000FFF7B4FD4FF49670FFF786FA41B030BD3D
:10800000E42E0020FC9C0008CFC2D4D8BDF8B6C82E
:108010003A25642F25640D0A000000002F73797340
:108020002F6868367A5062584E4C62722F44303056
:10803000312F7468696E672F66696C652F646F777E
:108040006E6C6F616400000000BFFEE700B5A1B078
:10805000802101A8FDF796FC054A06A101A8FDF7BD
:1080600027F901A90DA0FFF715FE21B000BD000002
:10807000340000207B226964223A202231222C2203
:10808000706172616D73223A207B2276657273692A
:108090006F6E223A20222573227D7D002F6F74613E
:1080A0002F6465766963652F696E666F726D2F68E0
:1080B00068367A5062584E4C62722F44303031002C
:1080C00000B587B040F20C6001F0E4FA40F20260C3
:1080D00001F0E0FAA02303221821114801F088F8EA
:1080E0004023032204210E4801F082F80D4801F0DC
:1080F0000DFB4FF4827000900020019002904FF42D
:108100000070039000200490059006906946054891
:1081100001F030FB034801F0EDFA07B000BD0000AC
:10812000000801400030014010B5044600BF0221A4
:108130000A4801F017FB0028F9D02146074801F052
:10814000E2FA00BF0121054801F00CFB0028F9D03C
:10815000024801F0D4FAC0B210BD00000030014066
:1081600070B505460E46002404E0285DFFF7DCFFED
:10817000601C84B2B442F8DB70BD00BFFEE77047FC
:1081800008B53148006840F001002F49086000BF81
:108190002D48006800F002000028F9D000BF2A48EE
:1081A000406840F08000284948600020009002E0CC
:1081B0000098401C009000985028F9D3224840684D
:1081C00040F09000204948600020009002E00098B4
:1081D000401C009000985028F9D300BF1A4840680E
:1081E00020F0030018494860084600681749084015
:1081F000154908600846406815490840124948601A
:1082000008460068114908400F49086008460068A0
:1082100020F480200860084640680E4908400A495A
:1082200048600846006809490840074908604FF45B
:108230001F00886001F01AFB4FF4A0414FF000606E
:1082400001F08AF908BD000000100240FFFFF6FEB1
:108250000C00FFE8FFFF00F70FB438B505A8009049
:108260001248009A0499FDF711F8002000900024AC
:108270000DE000BF07210E4801F0C3FB0128F9D132
:108280000A48015D0A4801F056FB601C84B20748A9
:10829000FDF7C0FAA042ECD800BF0621044801F067
:1082A000B0FB0128F9D138BC5DF814FB6404002050
:1082B0000038014038B504460D46062D1ED1062271
:1082C000A1A12046FDF77AFAC0B9A1A0FFF7C4FF2B
:1082D000280201F0DFF900F0B5FE022200210120A2
:1082E00000F0BEFE0021012000F036FF012000F06A
:1082F00015FF00221146062001F0CEF8042D1FD1F3
:10830000207820281CD19EA0FFF7A6FFE078002847
:1083100011D1A3A0FFF7A0FFAC48006840F0010016
:10832000AA490860AAA0FFF77DFDB6A0FFF77AFD75
:10833000FFF78CFE04E0BFA0FFF78EFFFFF728FEDB
:10834000052D15D12078902812D1C5A0FFF784FF04
:10835000681E205C18B1681E205C012803D1C9A0EA
:10836000FFF77AFF04E0D1A0FFF776FFFFF710FEDA
:108370009648007800F00100002875D02078302859
:1083800072D1D4A0FFF768FF29462046FFF7C6FB4D
:10839000D8A1DC48FDF700FA30B1DBA0FFF75CFFA5
:1083A000DCA1E3A0FFF7DAFBEDA1D648FDF7F4F975
:1083B00030B1EFA0FFF750FFF0A1DDA0FFF7CEFB3B
:1083C000F5A1D048FDF7E8F9002851D0FC48031F7B
:1083D0001A1FFC490090CB48FDF7AAF8032844D1A6
:1083E000F948D0F81024F64BD0F80C14F7A0FFF79A
:1083F00033FF7648006840F00200744908600020AE
:1084000000F0CAFBF049D1F80C04C11700EB116170
:108410000912A0EB012151B9EB49D1F80C04C117A5
:1084200000EB11610912E84AC2F830140AE0E6498B
:10843000D1F80C04C11700EB11610912491CE24A82
:10844000C2F830140120E049C1F834040002C1F838
:1084500038040A46D2F83424521E1102DA4AD2F8FD
:108460003804FFF7A9FD03E032E0E7A0FFF7F4FED0
:10847000EAA1A448FDF790F9002829D0D24AB2F821
:108480003424521E91B2D04AD2F83824AA1A921E2D
:10849000101900F0BBFBCC48D0F83404401CCA498A
:1084A000C1F834040846D0F83404D1F830148842B6
:1084B0000FDA4FF48070C449C1F838040A46D2F884
:1084C0003424521E1102C04AD2F83804FFF774FD5A
:1084D000D7E1BD48D0F83404BB49D1F83014884204
:1084E00030D1B949D1F80C04C11700EB1161091260
:1084F000A0EB012181B94FF48070B349C1F8380471
:10850000D1F80C04C11700EB11610912A0EB012195
:10851000AD4AC2F83814B4E1AB49D1F80C04C11724
:1085200000EB11610912A0EB0121A74AC2F838142F
:10853000D2F83424521E1102A34AD2F83804FFF7AD
:108540003BFD9EE184E100006368616F7A69000091
:108550000D0A3467C4A3BFE9B8B4CEBBB3C9B9A68A
:1085600021D5FDD4DAB5C8B4FDC1ACBDD3B7FECEBC
:10857000F1C6F7285042303D31292E2E2E0D0A002B
:10858000CAD5B5BDC1CBB7FECEF1C6F7B5C4636FD2
:108590006E6E6563745F61636BB1A8CEC40D0A0033
:1085A000BEADB9FDB7D6CEF6636F6E6E6563745F10
:1085B00061636BB1A8CEC42CB7FECEF1C6F7C1ACD7
:1085C000BDD3B3C9B9A60D0A000000000000002009
:1085D0002F7379732F6868367A5062584E4C6272E6
:1085E0002F443030312F7468696E672F736572764F
:1085F0006963652F70726F70657274792F7365741B
:10860000000000002F7379732F6868367A50625823
:108610004E4C62722F443030312F7468696E672F70
:1086200066696C652F646F776E6C6F61645F7265ED
:10863000706C7900BEADB9FDB7D6CEF6636F6E6EC5
:108640006563745F61636BB1A8CEC42CD7BCB1B84D
:10865000D6D8C6F4D4D9B4CEC1B4BDD3210D0A0046
:10866000CAD5B5BDC1CBB7FECEF1C6F7B5C47375DB
:10867000627363726962655F61636BB1A8CEC40D9A
:108680000A000000BEADB9FDB7D6CEF673756273B1
:1086900063726962655F61636BB1A8CEC42CB6A9D1
:1086A000D4C4B3C9B9A60D0A00000000BEADB9FD1F
:1086B000B7D6CEF67375627363726962655F616384
:1086C0006BB1A8CEC42CB6A9D4C4CAA7B0DC210D06
:1086D0000A000000CAD5B5BDC1CBB7FECEF1C6F7C2
:1086E000B5C4B5C8BCB630B5C4CDC6CBCDB1A8CE27
:1086F000C40D0A007B2253776974636831223A30D3
:108700007D000000EE300020B9D8B1D5BFAAB9D89D
:108710000D0A00007B22706172616D73223A7B2228
:1087200053776974636831223A307D7D0000000020
:108730002F7379732F6868367A4262584E4C627292
:108740002F443030312F7468696E672F6576656EFF
:10875000742F70726F70657274792F706F737400FC
:108760007B2253776974636831223A317D000000BF
:10877000B4F2BFAABFAAB9D80D0A00007B2270616B
:1087800072616D73223A7B22537769746368312278
:108790003A317D7D000000002F6F74612F64657693
:1087A0006963652F757067726164652F6868367AD2
:1087B0005062584E4C62722F44303031000000003D
:1087C000F8320020249C0008E42E0020CCE1C8A14F
:1087D000B9CCBCFED0C5CFA2B3C9B9A60D0AB9CCDD
:1087E000BCFEB4F3D0A1CEAA25640D0AB9CCBCFE60
:1087F0006964CEAA25640D0AB9CCBCFEB0E6B1BE50
:10880000CEAA25730D0A0000CCE1C8A1B9CCBCFEEC
:10881000D0C5CFA2CAA7B0DC0D0A00002F6F7461CB
:108820002F6465766963652F757067726164652F63
:108830006868367A5062584E4C62722F443030313C
:108840002F646F776E6C6F61645F7265706C790016
:108850000CA0FFF701FD20210F48FDF793F81A2225
:108860000E490D48FDF73AF80D48D0F80C040A49B6
:10887000303948604FF066300860FFF723F8FFF7A3
:1088800087FB38BD6F7461B7D6C6ACCFC2D4D8CD24
:10889000EAB1CF0D0A00000034000020F8320020B9
:1088A000E42E0020002005490880081D48658865E1
:1088B0004830C8650248496D08607047242E002082
:1088C0002406002070B505460C462348B0F8600029
:1088D000C0F5A050A04209DB1F48B0F860001F4956
:1088E00008441D49D1F8B410086007E000201A4977
:1088F000A1F860001948D1F8B41008601649D1F801
:10890000B410224608682946FCF7A3FF1248B0F8C5
:10891000600020441049A1F860000846B0F86000EB
:10892000401E0E4908440C49D1F8B41048600A486A
:10893000D0F8B40008300849C1F8B4000846D0F8AF
:10894000B400D1F8BC10884204D103486430024915
:10895000C1F8B40070BD0000242E0020241A0020AD
:1089600000200A49A1F8600001F16400C1F8B400D8
:10897000C1F8B8004830C1F8BC000548D1F8B410BF
:10898000086000200149A1F862007047242E0020F1
:10899000241A002010B52D492D4801F04EF800286A
:1089A00053D004212A4801F02CF8294800F0BEFFDA
:1089B0000221284800F035FB40F20121081A26491F
:1089C000098808442449088008460088401E234935
:1089D00008442149496D48601F48406D08301E49D0
:1089E00048650846406DC96D884203D11A48001D8C
:1089F000011F486518480088C0F5A050B0F5007FF9
:108A000007DB15480088154908441349496D08607B
:108A100006E012481049496D086000200E490880A0
:108A200002210C4800F04FF940F2012202210948CE
:108A300000F0E4FA0848406D02210268054800F0A1
:108A4000BEFA0221034800F057F910BD04030400E8
:108A50000048004000000240242E00202406002090
:108A600000BFFEE710B5044640F20E6000F012FEB3
:108A700040F2026000F00EFE4FF400730322182152
:108A80000E4800F0B5FB0E4800F05AFF21460C4896
:108A900000F004FF00210A4800F0EBFF0021084825
:108AA00001F007F80021064800F0F3FF0821044810
:108AB00000F0F7FF024800F09FFF10BD00080140E2
:108AC0000038014010B5044640F2127000F0E2FD9B
:108AD00040F2036000F0DEFD4FF4806303221821B2
:108AE000224800F085FB4FF40063032204211F4855
:108AF00000F07EFB1E4800F023FF21461C4800F0DA
:108B0000CDFE00211A4800F0B4FF0021184800F003
:108B1000D0FF0021164800F0BCFF0821144800F0E7
:108B2000C0FF0421124800F0ACFF4021104800F0C3
:108B30004FFF80210E4800F055FF4FF4A06000F079
:108B400001FD00221146272000F0A6FC4FF44171E0
:108B5000074800F065FFFFF7A5FEFFF701FFFEF7EE
:108B600073FC034800F048FF10BD0000000C0140FA
:108B70000048004010B500F073F81021054800F0DF
:108B8000E7FA0620FFF7D0FA1021024800F0E2FAD7
:108B900010BD00000008014038B50446D8208DF80B
:108BA0000000A0B28DF801002004000A8DF8020038
:108BB0002004C0B28DF8030000F052F8FFF7DAFF8E
:108BC0001021074800F0C4FA04216846FFF7C8FAEC
:108BD0001021034800F0BEFA00F042F838BD000052
:108BE0000008014010B540F2026000F053FD102370
:108BF00003221946044800F0FBFA1021024800F055
:108C0000A9FAFFF75DFA10BD0008014038B5054626
:108C10000C4602208DF80000C4F30F208DF80100EF
:108C200024F07F408DF802002002C0B28DF80300CE
:108C300000F016F8FFF79EFF1021084800F088FAB0
:108C400004216846FFF78CFA4FF480712846FFF73D
:108C500087FA1021014800F07DFA38BD0008014074
:108C600010B500BF1021094800F072FA0520FFF787
:108C70005BFAFF20FFF758FA04461021034800F082
:108C800069FA04F001000028ECD110BD0008014091
:108C9000490050EAC12018BF04204A0D18BF40F017
:108CA000010040F2FF72B2EB515F08BF40F00200DA
:108CB000012808BF0520704730380A2801D201205A
:108CC00070470020704770B505460C46214628467F
:108CD00000F088F908B900BFFEE704EB84008100CA
:108CE00005F10800405820F0010104EB84008200E7
:108CF00005F10800815070BD70B505460C4621464F
:108D0000284600F06FF908B900BFFEE704EB8400C5
:108D1000810005F10800405840F0010104EB840097
:108D2000820005F10800815070BD70B505460C4603
:108D30002146284600F056F908B900BFFEE704EBCB
:108D40008400810005F10800405820F0200104EB68
:108D50008400820005F10800815070BD70B50446A2
:108D60000D462946204600F03DF908B900BFFEE750
:108D700005EB8500810004F10800405820F0010156
:108D800005EB8500820004F108008150002105EB0D
:108D90008500820004F10800815005EB8500820007
:108DA00004F10C00815005EB8500820004F11000F5
:108DB000815005EB8500820004F114008150606849
:108DC000AA000F2191400843606070BD2DE9F04179
:108DD00004460D4616462946204600F003F908B918
:108DE00000BFFEE705EB8500820004F1100031684A
:108DF000815005EB8500820004F11400B1688150B8
:108E0000308A81B205EB8500820004F10C008150AC
:108E100005EB8500810004F10800475827F47C57D2
:108E2000F1687068084371690843074305EB8500E2
:108E3000810004F108004750307E01280ED105EB77
:108E40008500810004F10800405840F0400105EB26
:108E50008500820004F1080081500DE005EB8500DB
:108E6000810004F10800405820F0400105EB850026
:108E7000820004F108008150707E01280ED105EBBC
:108E80008500810004F10800405840F0800105EBA6
:108E90008500820004F1080081500DE005EB85009B
:108EA000810004F10800405820F0800105EB8500A6
:108EB000820004F108008150B07E70B905EB850096
:108EC000810004F10800405820F0100105EB8500F6
:108ED000820004F1080081500DE005EB850081005F
:108EE00004F10800405840F0100105EB85008200B5
:108EF00004F108008150BDE8F08170B504460D46CC
:108F000016462946204600F06DF808B900BFFEE776
:108F100005EB8500810004F108004058304305EB63
:108F200085018A0004F10801885070BD10B54368BE
:108F30008C0002FA04F42343436010BD70B503466D
:108F400000BF00BF022A04D0042A11D0082A2DD164
:108F50001DE018688E0002FA06F600EA060501EB2D
:108F60008100860003F10800805900F002041FE030
:108F700018688E0002FA06F600EA060501EB810089
:108F8000860003F10800805900F0040410E018681E
:108F90008E0002FA06F600EA060501EB8100860063
:108FA00003F10800805900F0080401E000BFFEE76B
:108FB00000BF15B10CB1012070BD0020FCE770B5F9
:108FC00006460C4615462146304600F00BF808B917
:108FD00000BFFEE704EB8400810006F11400455059
:108FE00070BD000002460120034B9A4202D10429C1
:108FF00000DD0020704700000004024070B5064606
:109000000C46154621463046FFF7ECFF08B900BF75
:10901000FEE7A9B204EB8400820006F10C00815047
:1090200070BD70B505460C4621462846FFF7DAFFAD
:1090300008B900BFFEE704EB8400810005F10C00D5
:10904000405870BD002005490860091D0860091DD1
:109050000860091D0860091D086070470004014090
:1090600010B52D4B1B6883432B4C2360231D1B68BD
:109070008343241D2360231D1B688343241D236019
:10908000231D1B688343241D236011B101290ED1C8
:1090900005E0214B1B6803431F4C236008E01E4B77
:1090A0001B1D1B6803431C4C241D236000E000BFF4
:1090B00000BF32B1012A11D0022A1CD0032A27D1C5
:1090C00027E0154B08331B680343134C0834236017
:1090D000231D1B688343241D23601BE00E4B0833B4
:1090E0001B6883430C4C08342360231D1B68034317
:1090F000241D23600EE0084B08331B680343064C15
:1091000008342360231D1B680343241D236001E0F2
:1091100000BF00BF00BF10BD000401400249096844
:109120000143014A11607047000401400149086091
:1091300070470000140401400146044800680840DC
:1091400008B1012070470020FCE700001404014032
:10915000416170470161704710B500228B071C0FF9
:109160000F2303FA04F204290EDA204B9B68934381
:109170001E4CA36023469B688C07240F00FA04F45E
:1091800023431A4CA3602FE008290EDA174BDB6843
:109190009343164CE3602346DB688C07240F00FAE8
:1091A00004F42343114CE3601EE00C290EDA0F4B4C
:1091B0001B6993430D4C236123461B698C07240FC5
:1091C00000FA04F42343094C23610DE0074B5B696B
:1091D0009343064C636123465B698C07240F00FAB6
:1091E00004F42343014C636110BD00000000014002
:1091F000F0B5044616460025002201F00F0501F0E7
:10920000100707B1354300201EE0012787401F40AB
:10921000C7B122684FEA800C0F2707FA0CF7BA4350
:10922000870005FA07F73A43282904D10127874028
:109230001F40676105E0482903D1012787401F408F
:1092400027612260471CB8B20828DED3082022E03C
:10925000012787401F40E7B16268A0F108074FEA85
:10926000870C0F2707FA0CF7BA43A0F10807BF00D5
:1092700005FA07F73A43282904D1012787401F4000
:10928000676105E0482903D1012787401F40276116
:109290006260471CB8B21028DAD3F0BD024690686D
:1092A000084008B1012070470020FCE7FEF756F99E
:1092B0004FF4E130FFF706FC4FF46120FFF7D2FBDB
:1092C000FEF7C2F9FFF78EFCFEF7EEFAFEF786F91D
:1092D00057A0FEF7C1FFAAE05948806D5849496D73
:1092E00088423ED05648806D4068554A926D12685B
:1092F000801A411C53A0FEF7AFFF002408E050483D
:10930000806D0068015D58A0FEF7A6FF601CC4B226
:109310004B48806D40684A49896D0968401A401C75
:10932000A042ECDC4FA0FEF797FF454A926D928871
:10933000434B9B6D1B88D21A521C91B2404A926DCE
:109340001068FEF7B7FF3E48806D08303C498865DD
:109350000846806DC96D884203D13948001D011F40
:1093600088653748D0F8B8003549D1F8B41088423C
:109370005DD03348B0F86200002858D13048D0F8AA
:10938000B80040682E4AD2F8B8201268801A411CF2
:1093900036A0FEF761FF002409E02948D0F8B800A4
:1093A0000068015D39A0FEF757FF601CC4B2244875
:1093B000D0F8B80040682249D1F8B8100968401ABE
:1093C000401CA042E9DC27A0FEF746FF01201C4913
:1093D000A1F862000846D0F8B800012102682D48C3
:1093E000FFF7EDFD1648D0F8B80040681449D1F8F1
:1093F000B8100968401A421C01212648FFF7FEFDFB
:1094000001212448FFF778FC0D48D0F8B800083057
:109410000B49C1F8B8000846D0F8B800D1F8BC1024
:10942000884204D1064864300549C1F8B80053E7C2
:1094300076657273696F6E3A362E302E300D0A00E3
:10944000242E00200D0AB4AEBFDA32B1BEB4CEBDB8
:10945000D3CADCB5BDC1CB2564D7D6BDDAB5C4CA85
:10946000FDBEDD3A0D0A0000257800000D0AB4AEFD
:10947000BFDA32B4FDB7A2CBCD2564D7D6BDDAB5FD
:10948000C4CAFDBEDD3A0D0A000000002530327866
:1094900000000000000002402DE9F04103460D46A7
:1094A000164600240027A0462448006800F4E06027
:1094B000B0F5A06F15D006DCB0F5407F18D0B0F540
:1094C000806F19D110E0B0F5C06F06D0B0F5E06F35
:1094D00012D100274FF0040815E001274FF00308D0
:1094E00011E00227B8460EE003274FF001080AE01A
:1094F00004274FF0000806E04FF4A06000F022F8C7
:109500000227B84600BF00BFC7F1040005FA00F407
:10951000C8F104010F20C84030400443240108482A
:10952000C45403F01F01012088405911890001F142
:10953000E021C1F80001BDE8F08100000CED00E081
:1095400000E400E002490143024A11607047000054
:109550000000FA050CED00E0034A0A400243034B09
:109560001A60BFF34F8F704780FFFF1F08ED00E0C8
:109570002DE9F04F8BB00746002009903EA090E8FF
:10958000004CC068CDE905BECDF810A007900FF2E1
:10959000EC0ADAE9000ACDE9020A0FF2E00ADAE998
:1095A000000ACDE9000A38484068C0F381000A90FB
:1095B0000A9820B1012804D0022829D103E03349B8
:1095C00028E0324926E03048406800F48038B8F599
:1095D000803F09D12D4C2C48406800F40039B9F582
:1095E000003F02D1641000E0294C27484068C0F3D6
:1095F00083422548406800F0006008B142F0100244
:109600000F2A01D2921C00E0521C04FB02F101E07F
:109610001E4900BF00BF1C484068C0F3031504A8E2
:10962000465D21FA06F318484068C0F3022502A8F7
:10963000465D23FA06FC14484068C0F3C2251DF8B5
:10964000056023FA06F0089037B1012F06D0022FEB
:1096500006D0032F0AD106E0099108E0099306E03D
:10966000CDF824C003E00898099000E000BF00BFD7
:1096700009980BB0BDE8F08F00000000000000006A
:1096800001020304060708090010024000127A00D4
:1096900000093D00064A02EB9011096800F01F0323
:1096A00001229A401143024B03EB90121160704764
:1096B00000100240064A02EB9011096800F01F03F7
:1096C00001229A409143024B03EB901211607047C4
:1096D00000100240064A02EB9011096800F01F03D7
:1096E00001229A401143024B03EB90121160704724
:1096F00000100240016841F04001016070470146DE
:10970000C86880B27047C1607047000010B5044659
:109710001348204470B1B0F5806F14D0B0F5784F85
:109720001AD14FF44370FFF7D5FF4FF44370FFF7A2
:10973000C1FF12E040F20E40FFF7CCFF40F20E40B6
:10974000FFF7B8FF09E040F20F40FFF7C3FF40F218
:109750000F40FFF7AFFF00E000BF00BF10BD0000EB
:1097600000C8FFBF02469068084008B1012070475A
:109770000020FCE702460020106800F441500B680E
:1097800018434B6818438B681843CB6818430B6920
:1097900018434B6918438B6918431060D36923F44D
:1097A0000063D36170470000002000212C4A12683A
:1097B00042F480322A4B1A6000BF401C284A1268CB
:1097C00002F4003119B94FF6FF729042F5D1244AE4
:1097D000126802F400320AB900BFFEE7204A52685C
:1097E0001F4B5A601A4652685A601A46526842F431
:1097F00080625A601A46526822F440325A601A4611
:10980000526842F440325A601A465268154B1A4068
:10981000134B5A601A465268134B1A43104B5A6046
:109820001A46126842F080721A6000BF0C4A126831
:1098300002F00072002AF9D0094A526822F00302AD
:10984000074B5A601A46526842F002025A6000BF43
:10985000034A526802F00C02082AF9D1704700004E
:1098600000100240FFFFC3F70000280810B5FFF703
:109870009BFF10BD042808D14FF0E021096941F099
:1098800004014FF0E022116107E04FF0E021096987
:1098900021F004014FF0E022116170472DE9F047FB
:1098A00004460D460027B846B94600261D49601AF1
:1098B0008C421CD006DC1C48204470B1B0F5806F8F
:1098C0001FD10FE0B0F5806F16D0B0F56C4F18D1F6
:1098D0000320FFF74DFE074614E00220FFF748FE85
:1098E00007460FE00220FFF743FE07460AE002208A
:1098F000FFF73EFE074605E00220FFF739FE074668
:1099000000E000BF00BF07EB5500B0FBF5F64FF6D7
:10991000F07006EA000806F00F0948EA0900A060A6
:10992000BDE8F087004C004000BCFFBF014648681E
:10993000C0F308007047C1F308024260704700009E
:1099400010B504462049601A8C4228D006DC1F4816
:10995000204490B1B0F5806F33D117E0B0F5806F3F
:1099600026D0B0F56C4F2CD140F20E30FFF7B2FE8E
:1099700040F20E30FFF79EFE24E040F21140FFF768
:10998000A9FE40F21140FFF795FE1BE040F21240A5
:10999000FFF7A0FE40F21240FFF78CFE12E040F20B
:1099A0001340FFF797FE40F21340FFF783FE09E0F4
:1099B00040F21440FFF78EFE40F21440FFF77AFEAB
:1099C00000E000BF00BF10BD004C004000BCFFBF66
:1099D000426922F040024261426901F040031A43A9
:1099E00042617047426922F080024261426901F09F
:1099F00080031A4342617047C16841F40051C1605D
:109A0000704710B5024602EB9110006801F01F0488
:109A10000123A340184008B1012010BD0020FCE73D
:109A200010B5C1F38912825801F01F040123A3402D
:109A30001A43C1F38913C25010BD70B5024600230A
:109A40000024C1F38910105801F01F060125B5400C
:109A500000EA050302EB91500068C1F304460125BA
:109A6000B54000EA050414B10BB1012070BD00201F
:109A7000FCE7C26822F4C062C260C2680A43C260E6
:109A800070470A460021C16821F004011143C160FA
:109A90007047026922F44052026102690A4302617E
:109AA00070470A460021C16821F008011143C160D6
:109AB0007047C26822F48052C260C2680A43C26022
:109AC0007047000010B500290AD00878002807D098
:109AD00005487844FDF77AF8002801D0002010BD31
:109AE0000248784410BD0000420300003A03000021
:109AF00010B500290AD00878002807D00548784416
:109B0000FDF764F8002801D0002010BD0248784419
:109B100010BD0000320300002A030000FCF7BFBAAA
:109B2000FCF7F4BB04000008000000000000000285
:109B30000001000010000000000000000000000014
:109B40003031323334353637383941424344454673
:109B5000403058003031323334353637383961626D
:109B600063646566403078003031323334353637DF
:109B7000383961626364656678700030313233343D
:109B80003536373839414243444546585000000085
:109B900002400000000000A000000000054000009E
:109BA000000000C8000000000C4000000000409CC5
:109BB00000000000194000000020BCBE00000000B2
:109BC00034400000BFC91B8E00000004B5400000F7
:109BD000504BCFD06607E2CF010000006C4100007F
:109BE0003E8251AADFEEA73401000000D9420000F6
:109BF000DCB5A0E23A301F97FFFFFFFFB44500003D
:109C0000FD25A0C8E9A3C14FFFFFFFFFFF3F0000F4
:109C10000000008000000000FF3F00000000008006
:109C2000000000002F6F74612F6465766963652FF3
:109C3000757067726164652F6868367A5062584E35
:109C40004C62722F443030317B22636F6465223A5C
:109C50002231303030222C2264617461223A7B221E
:109C600073697A65223A25642C2273747265616D7A
:109C70004964223A25642C227369676E223A2225B0
:109C80002A333273222C226450726F746F636F6CAC
:109C9000223A226D717474222C2276657273696F78
:109CA0006E223A2225323673222C227369676E4D5A
:109CB0006574686F64223A224D6435222C227374D5
:109CC0007265616D46696C654964223A312C226D7A
:109CD0006435223A22252A333273227D2C2269648C
:109CE000223A252A642C226D657373616765223AD6
:109CF0002273756363657373227D00007B22696440
:109D0000223A202231222C22706172616D73223A34
:109D1000207B2266696C65496E666F223A7B2273EE
:109D2000747265616D4964223A25642C2266696CFF
:109D3000654964223A317D2C2266696C65426C6FFC
:109D4000636B223A7B2273697A65223A25642C225E
:109D50006F6666736574223A25647D7D7D00000020
:109D60006868367A5062584E4C62722E44303031F8
:109D70007C7365637572656D6F64653D322C7369C4
:109D8000676E6D6574686F643D686D61637368616B
:109D90003235362C74696D657374616D703D313682
:109DA0003831393935353631393238310000000033
:109DB00030316332653635393665363034333263A7
:109DC000346337623165623837333933333933615D
:109DD0006166626439316237343935316237393816
:109DE0003163353933663461363731303833306179
:109DF00000000000409F0008000000200400000058
:109E000040510008449F0008040000207C390000F5
:109E10005C5100081C00000043000000F8FFFFFF39
:109E20000C0000000E0000000F0000002E000000DB
:109E30001001000043000000F8FFFFFF0040404019
:109E4000404040404040414141414140404040400D
:109E500040404040404040404040404040050202B9
:109E60000202020202020202020202020220202078
:109E700020202020202020020202020202029090D4
:109E800090909090101010101010101010101010D2
:109E90001010101010101010020202020202888826
:109EA0008888888808080808080808080808080832
:109EB000080808080808080802020202400000001A
:109EC0000000000000000000000000000000000092
:109ED0000000000000000000000000000000000082
:109EE0000000000000000000000000000000000072
:109EF0000000000000000000000000000000000062
:109F00000000000000000000000000000000000051
:109F10000000000000000000000000000000000041
:109F20000000000000000000000000000000000031
:109F30000000000000000000000000000000000021
:049F4000000000001D
:040000050800510599
:00000001FF
